{
  "contractName": "BuyMeACoffee",
  "abi": [
    {
      "anonymous": false,
      "inputs": [
        {
          "indexed": false,
          "internalType": "address",
          "name": "previousAdmin",
          "type": "address"
        },
        {
          "indexed": false,
          "internalType": "address",
          "name": "newAdmin",
          "type": "address"
        }
      ],
      "name": "AdminChanged",
      "type": "event"
    },
    {
      "anonymous": false,
      "inputs": [
        {
          "indexed": true,
          "internalType": "address",
          "name": "beacon",
          "type": "address"
        }
      ],
      "name": "BeaconUpgraded",
      "type": "event"
    },
    {
      "anonymous": false,
      "inputs": [
        {
          "indexed": true,
          "internalType": "uint256",
          "name": "id",
          "type": "uint256"
        },
        {
          "indexed": false,
          "internalType": "address",
          "name": "giver",
          "type": "address"
        },
        {
          "indexed": false,
          "internalType": "uint256",
          "name": "timestamp",
          "type": "uint256"
        },
        {
          "indexed": false,
          "internalType": "string",
          "name": "message",
          "type": "string"
        },
        {
          "indexed": false,
          "internalType": "string",
          "name": "name",
          "type": "string"
        },
        {
          "indexed": false,
          "internalType": "uint256",
          "name": "amount",
          "type": "uint256"
        }
      ],
      "name": "CoffeeGiven",
      "type": "event"
    },
    {
      "anonymous": false,
      "inputs": [
        {
          "indexed": false,
          "internalType": "uint8",
          "name": "version",
          "type": "uint8"
        }
      ],
      "name": "Initialized",
      "type": "event"
    },
    {
      "anonymous": false,
      "inputs": [
        {
          "indexed": true,
          "internalType": "address",
          "name": "implementation",
          "type": "address"
        }
      ],
      "name": "Upgraded",
      "type": "event"
    },
    {
      "anonymous": false,
      "inputs": [
        {
          "indexed": true,
          "internalType": "address",
          "name": "from",
          "type": "address"
        },
        {
          "indexed": true,
          "internalType": "address",
          "name": "to",
          "type": "address"
        },
        {
          "indexed": false,
          "internalType": "uint256",
          "name": "amount",
          "type": "uint256"
        }
      ],
      "name": "Withdrawn",
      "type": "event"
    },
    {
      "inputs": [],
      "name": "coffeeCount",
      "outputs": [
        {
          "internalType": "uint256",
          "name": "",
          "type": "uint256"
        }
      ],
      "stateMutability": "view",
      "type": "function",
      "constant": true
    },
    {
      "inputs": [],
      "name": "name",
      "outputs": [
        {
          "internalType": "string",
          "name": "",
          "type": "string"
        }
      ],
      "stateMutability": "view",
      "type": "function",
      "constant": true
    },
    {
      "inputs": [],
      "name": "owner",
      "outputs": [
        {
          "internalType": "address payable",
          "name": "",
          "type": "address"
        }
      ],
      "stateMutability": "view",
      "type": "function",
      "constant": true
    },
    {
      "inputs": [],
      "name": "proxiableUUID",
      "outputs": [
        {
          "internalType": "bytes32",
          "name": "",
          "type": "bytes32"
        }
      ],
      "stateMutability": "view",
      "type": "function",
      "constant": true
    },
    {
      "inputs": [
        {
          "internalType": "address",
          "name": "newImplementation",
          "type": "address"
        }
      ],
      "name": "upgradeTo",
      "outputs": [],
      "stateMutability": "nonpayable",
      "type": "function"
    },
    {
      "inputs": [
        {
          "internalType": "address",
          "name": "newImplementation",
          "type": "address"
        },
        {
          "internalType": "bytes",
          "name": "data",
          "type": "bytes"
        }
      ],
      "name": "upgradeToAndCall",
      "outputs": [],
      "stateMutability": "payable",
      "type": "function",
      "payable": true
    },
    {
      "inputs": [],
      "name": "initialize",
      "outputs": [],
      "stateMutability": "nonpayable",
      "type": "function"
    },
    {
      "inputs": [
        {
          "internalType": "string",
          "name": "_message",
          "type": "string"
        },
        {
          "internalType": "string",
          "name": "_name",
          "type": "string"
        },
        {
          "internalType": "uint256",
          "name": "_amount",
          "type": "uint256"
        }
      ],
      "name": "giveCoffee",
      "outputs": [],
      "stateMutability": "payable",
      "type": "function",
      "payable": true
    },
    {
      "inputs": [],
      "name": "withdrawAll",
      "outputs": [],
      "stateMutability": "payable",
      "type": "function",
      "payable": true
    },
    {
      "inputs": [
        {
          "internalType": "uint256",
          "name": "index",
          "type": "uint256"
        },
        {
          "internalType": "uint256",
          "name": "limit",
          "type": "uint256"
        }
      ],
      "name": "listCoffees",
      "outputs": [
        {
          "components": [
            {
              "internalType": "uint256",
              "name": "id",
              "type": "uint256"
            },
            {
              "internalType": "address",
              "name": "giver",
              "type": "address"
            },
            {
              "internalType": "uint256",
              "name": "timestamp",
              "type": "uint256"
            },
            {
              "internalType": "string",
              "name": "message",
              "type": "string"
            },
            {
              "internalType": "string",
              "name": "name",
              "type": "string"
            },
            {
              "internalType": "uint256",
              "name": "amount",
              "type": "uint256"
            }
          ],
          "internalType": "struct BuyMeACoffee.Coffee[]",
          "name": "",
          "type": "tuple[]"
        }
      ],
      "stateMutability": "view",
      "type": "function",
      "constant": true
    },
    {
      "inputs": [],
      "name": "getBalance",
      "outputs": [
        {
          "internalType": "uint256",
          "name": "",
          "type": "uint256"
        }
      ],
      "stateMutability": "view",
      "type": "function",
      "constant": true
    }
  ],
  "bytecode": "0x60a06040523060805234801561001457600080fd5b5060805161186761004c60003960008181610276015281816102bf0152818161035e0152818161039e015261043101526118676000f3fe60806040526004361061009c5760003560e01c80635fb657a6116100645780635fb657a6146101335780638129fc1c14610160578063853828b6146101755780638da5cb5b1461017d578063a10f6653146101b5578063fac516c2146101cb57600080fd5b806306fdde03146100a157806312065fe0146100cc5780633659cfe6146100e95780634f1ef2861461010b57806352d1902d1461011e575b600080fd5b3480156100ad57600080fd5b506100b66101de565b6040516100c3919061121c565b60405180910390f35b3480156100d857600080fd5b50475b6040519081526020016100c3565b3480156100f557600080fd5b5061010961010436600461124b565b61026c565b005b6101096101193660046112f2565b610354565b34801561012a57600080fd5b506100db610424565b34801561013f57600080fd5b5061015361014e366004611354565b6104d7565b6040516100c39190611376565b34801561016c57600080fd5b50610109610857565b6101096109aa565b34801561018957600080fd5b5060665461019d906001600160a01b031681565b6040516001600160a01b0390911681526020016100c3565b3480156101c157600080fd5b506100db60675481565b6101096101d9366004611454565b610a90565b606580546101eb906114c1565b80601f0160208091040260200160405190810160405280929190818152602001828054610217906114c1565b80156102645780601f1061023957610100808354040283529160200191610264565b820191906000526020600020905b81548152906001019060200180831161024757829003601f168201915b505050505081565b6001600160a01b037f00000000000000000000000000000000000000000000000000000000000000001630036102bd5760405162461bcd60e51b81526004016102b4906114fb565b60405180910390fd5b7f00000000000000000000000000000000000000000000000000000000000000006001600160a01b03166103066000805160206117eb833981519152546001600160a01b031690565b6001600160a01b03161461032c5760405162461bcd60e51b81526004016102b490611547565b61033581610d76565b6040805160008082526020820190925261035191839190610dc7565b50565b6001600160a01b037f000000000000000000000000000000000000000000000000000000000000000016300361039c5760405162461bcd60e51b81526004016102b4906114fb565b7f00000000000000000000000000000000000000000000000000000000000000006001600160a01b03166103e56000805160206117eb833981519152546001600160a01b031690565b6001600160a01b03161461040b5760405162461bcd60e51b81526004016102b490611547565b61041482610d76565b61042082826001610dc7565b5050565b6000306001600160a01b037f000000000000000000000000000000000000000000000000000000000000000016146104c45760405162461bcd60e51b815260206004820152603860248201527f555550535570677261646561626c653a206d757374206e6f742062652063616c60448201527f6c6564207468726f7567682064656c656761746563616c6c000000000000000060648201526084016102b4565b506000805160206117eb83398151915290565b6060600083116105395760405162461bcd60e51b815260206004820152602760248201527f232354686520696e6465782073686f756c642062652067726561746572207468604482015266616e207a65726f60c81b60648201526084016102b4565b60675483111561055b5760405162461bcd60e51b81526004016102b490611593565b600082116105bb5760405162461bcd60e51b815260206004820152602760248201527f2323546865206c696d69742073686f756c642062652067726561746572207468604482015266616e207a65726f60c81b60648201526084016102b4565b6067548311156105dd5760405162461bcd60e51b81526004016102b490611593565b6067546105ea8484611606565b11156105f65760675491505b60006106028484611619565b61060d906001611606565b67ffffffffffffffff81111561062557610625611266565b60405190808252806020026020018201604052801561065e57816020015b61064b61118d565b8152602001906001900390816106435790505b509050835b83811161084d576000818152606860209081526040808320815160c0810183528154815260018201546001600160a01b0316938101939093526002810154918301919091526003810180546060840191906106bd906114c1565b80601f01602080910402602001604051908101604052809291908181526020018280546106e9906114c1565b80156107365780601f1061070b57610100808354040283529160200191610736565b820191906000526020600020905b81548152906001019060200180831161071957829003601f168201915b5050505050815260200160048201805461074f906114c1565b80601f016020809104026020016040519081016040528092919081815260200182805461077b906114c1565b80156107c85780601f1061079d576101008083540402835291602001916107c8565b820191906000526020600020905b8154815290600101906020018083116107ab57829003601f168201915b5050505050815260200160058201548152505090506107e561118d565b8151815260808083015190820152606080830151908201526040808301519082015260a08083015190820152808461081d8986611619565b8151811061082d5761082d61162c565b60200260200101819052505050808061084590611642565b915050610663565b5090505b92915050565b600054610100900460ff16158080156108775750600054600160ff909116105b806108915750303b158015610891575060005460ff166001145b6108f45760405162461bcd60e51b815260206004820152602e60248201527f496e697469616c697a61626c653a20636f6e747261637420697320616c72656160448201526d191e481a5b9a5d1a585b1a5e995960921b60648201526084016102b4565b6000805460ff191660011790558015610917576000805461ff0019166101001790555b60408051808201909152600f81526e427579204d65204120436f6666656560881b602082015260659061094a90826116a9565b506000606755606680546001600160a01b031916331790558015610351576000805461ff0019169055604051600181527f7f26b83ff96e1f2b6a682f133852f6798a09c465da95921460cefb38474024989060200160405180910390a150565b6066546001600160a01b03163314610a105760405162461bcd60e51b815260206004820152602360248201527f23234f6e6c7920746865206f776e65722063616e2077697468647261772066756044820152626e647360e81b60648201526084016102b4565b6066546040516001600160a01b03909116904780156108fc02916000818181858888f19350505050158015610a49573d6000803e3d6000fd5b506066546040514781526001600160a01b039091169033907fd1c19fbcd4551a5edfb66d43d2e337c04837afda3482b42bdf569a8fccdae5fb9060200160405180910390a3565b6066546001600160a01b03163303610af65760405162461bcd60e51b8152602060048201526024808201527f23235468652073656e6465722073686f756c64206e6f7420626520746865206f6044820152633bb732b960e11b60648201526084016102b4565b6000835111610b515760405162461bcd60e51b815260206004820152602160248201527f2323546865206d6573736167652073686f756c64206e6f7420626520656d70746044820152607960f81b60648201526084016102b4565b6000825111610ba25760405162461bcd60e51b815260206004820152601e60248201527f2323546865206e616d652073686f756c64206e6f7420626520656d707479000060448201526064016102b4565b60003411610c035760405162461bcd60e51b815260206004820152602860248201527f232354686520616d6f756e742073686f756c642062652067726561746572207460448201526768616e207a65726f60c01b60648201526084016102b4565b3433311015610c735760405162461bcd60e51b815260206004820152603660248201527f23235468652073656e6465722062616c616e63652073686f756c6420626520676044820152751c99585d195c881d1a185b881d1a1948185b5bdd5b9d60521b60648201526084016102b4565b60678054906000610c8383611642565b90915550506040805160c08101825260675480825233602080840191825242848601908152606085018981526080860189905260a0860188905260009485526068909252949092208351815590516001820180546001600160a01b0319166001600160a01b0390921691909117905592516002840155519091906003820190610d0c90826116a9565b5060808201516004820190610d2190826116a9565b5060a082015181600501559050506067547f8121927f9fb8c73ab095f378347d476472dbc9ae7cc11db0e720e611859fb2653342868686604051610d69959493929190611769565b60405180910390a2505050565b6066546001600160a01b031633146103515760405162461bcd60e51b8152602060048201526014602482015273556e617574686f72697a6564205570677261646560601b60448201526064016102b4565b7f4910fdfa16fed3260ed0e7147f7cc6da11a60208b5b9406d12a635614ffd91435460ff1615610dff57610dfa83610f37565b505050565b826001600160a01b03166352d1902d6040518163ffffffff1660e01b8152600401602060405180830381865afa925050508015610e59575060408051601f3d908101601f19168201909252610e56918101906117b5565b60015b610ebc5760405162461bcd60e51b815260206004820152602e60248201527f45524331393637557067726164653a206e657720696d706c656d656e7461746960448201526d6f6e206973206e6f74205555505360901b60648201526084016102b4565b6000805160206117eb8339815191528114610f2b5760405162461bcd60e51b815260206004820152602960248201527f45524331393637557067726164653a20756e737570706f727465642070726f786044820152681a58589b195555525160ba1b60648201526084016102b4565b50610dfa838383610fd3565b6001600160a01b0381163b610fa45760405162461bcd60e51b815260206004820152602d60248201527f455243313936373a206e657720696d706c656d656e746174696f6e206973206e60448201526c1bdd08184818dbdb9d1c9858dd609a1b60648201526084016102b4565b6000805160206117eb83398151915280546001600160a01b0319166001600160a01b0392909216919091179055565b610fdc83610ffe565b600082511180610fe95750805b15610dfa57610ff8838361103e565b50505050565b61100781610f37565b6040516001600160a01b038216907fbc7cd75a20ee27fd9adebab32041f755214dbc6bffa90cc0225b39da2e5c2d3b90600090a250565b6060611063838360405180606001604052806027815260200161180b6027913961106a565b9392505050565b6060600080856001600160a01b03168560405161108791906117ce565b600060405180830381855af49150503d80600081146110c2576040519150601f19603f3d011682016040523d82523d6000602084013e6110c7565b606091505b50915091506110d8868383876110e2565b9695505050505050565b6060831561115157825160000361114a576001600160a01b0385163b61114a5760405162461bcd60e51b815260206004820152601d60248201527f416464726573733a2063616c6c20746f206e6f6e2d636f6e747261637400000060448201526064016102b4565b508161115b565b61115b8383611163565b949350505050565b8151156111735781518083602001fd5b8060405162461bcd60e51b81526004016102b4919061121c565b6040518060c001604052806000815260200160006001600160a01b03168152602001600081526020016060815260200160608152602001600081525090565b60005b838110156111e75781810151838201526020016111cf565b50506000910152565b600081518084526112088160208601602086016111cc565b601f01601f19169290920160200192915050565b60208152600061106360208301846111f0565b80356001600160a01b038116811461124657600080fd5b919050565b60006020828403121561125d57600080fd5b6110638261122f565b634e487b7160e01b600052604160045260246000fd5b600067ffffffffffffffff8084111561129757611297611266565b604051601f8501601f19908116603f011681019082821181831017156112bf576112bf611266565b816040528093508581528686860111156112d857600080fd5b858560208301376000602087830101525050509392505050565b6000806040838503121561130557600080fd5b61130e8361122f565b9150602083013567ffffffffffffffff81111561132a57600080fd5b8301601f8101851361133b57600080fd5b61134a8582356020840161127c565b9150509250929050565b6000806040838503121561136757600080fd5b50508035926020909101359150565b60006020808301818452808551808352604092508286019150828160051b87010184880160005b8381101561142657888303603f19018552815180518452878101516001600160a01b031688850152868101518785015260608082015160c082870181905291906113e9838801826111f0565b925050506080808301518683038288015261140483826111f0565b60a094850151979094019690965250509487019492509086019060010161139d565b509098975050505050505050565b600082601f83011261144557600080fd5b6110638383356020850161127c565b60008060006060848603121561146957600080fd5b833567ffffffffffffffff8082111561148157600080fd5b61148d87838801611434565b945060208601359150808211156114a357600080fd5b506114b086828701611434565b925050604084013590509250925092565b600181811c908216806114d557607f821691505b6020821081036114f557634e487b7160e01b600052602260045260246000fd5b50919050565b6020808252602c908201527f46756e6374696f6e206d7573742062652063616c6c6564207468726f7567682060408201526b19195b1959d85d1958d85b1b60a21b606082015260800190565b6020808252602c908201527f46756e6374696f6e206d7573742062652063616c6c6564207468726f7567682060408201526b6163746976652070726f787960a01b606082015260800190565b6020808252603c908201527f232354686520696e6465782073686f756c64206265206c657373207468616e2060408201527f6f7220657175616c20746f2074686520636f6666656520636f756e7400000000606082015260800190565b634e487b7160e01b600052601160045260246000fd5b80820180821115610851576108516115f0565b81810381811115610851576108516115f0565b634e487b7160e01b600052603260045260246000fd5b600060018201611654576116546115f0565b5060010190565b601f821115610dfa57600081815260208120601f850160051c810160208610156116825750805b601f850160051c820191505b818110156116a15782815560010161168e565b505050505050565b815167ffffffffffffffff8111156116c3576116c3611266565b6116d7816116d184546114c1565b8461165b565b602080601f83116001811461170c57600084156116f45750858301515b600019600386901b1c1916600185901b1785556116a1565b600085815260208120601f198616915b8281101561173b5788860151825594840194600190910190840161171c565b50858210156117595787850151600019600388901b60f8161c191681555b5050505050600190811b01905550565b60018060a01b038616815284602082015260a06040820152600061179060a08301866111f0565b82810360608401526117a281866111f0565b9150508260808301529695505050505050565b6000602082840312156117c757600080fd5b5051919050565b600082516117e08184602087016111cc565b919091019291505056fe360894a13ba1a3210667c828492db98dca3e2076cc3735a920a3ca505d382bbc416464726573733a206c6f772d6c6576656c2064656c65676174652063616c6c206661696c6564a264697066735822122035b414c9eeffd9e744718b0beaec443366c3139c7879926b40cb2e6f69702c3064736f6c63430008130033",
  "immutableReferences": {
    "564": [
      {
        "length": 32,
        "start": 630
      },
      {
        "length": 32,
        "start": 703
      },
      {
        "length": 32,
        "start": 862
      },
      {
        "length": 32,
        "start": 926
      },
      {
        "length": 32,
        "start": 1073
      }
    ]
  },
  "source": "// SPDX-License-Identifier: MIT\npragma solidity ^0.8.19;\n\nimport \"@openzeppelin/contracts-upgradeable/proxy/utils/UUPSUpgradeable.sol\";\n\ncontract BuyMeACoffee is UUPSUpgradeable  {\n\n    // Define a variable called 'name' to store the name of the smart contact\n    string public name;\n    // Mark the owner address as payable so we can send them Ether\n    address payable public owner;\n    // Define a variable to track the number of coffees given\n    uint256 public coffeeCount;\n    // Define a mapping of `uint256` to `Coffee` structs\n    mapping(uint256 => Coffee) coffees;\n\n    // Define a struct that will store info about each coffee.\n    struct Coffee {\n        uint256 id;\n        address giver;\n        uint256 timestamp;\n        string message;\n        string name;\n        uint256 amount;\n    }\n\n    // Define an event that will be emitted when a coffee is given\n    event CoffeeGiven(\n        uint256 indexed id,\n        address giver,\n        uint256 timestamp,\n        string message,\n        string name,\n        uint256 amount\n    );\n\n    //Define an event that will be emitted when a coffee is withdrawn\n    event Withdrawn(\n        address indexed from,\n        address indexed to,\n        uint256 amount\n    );\n\n    // Native constructor is replaced by initialize function in upgradeable contracts\n    // @see https://docs.openzeppelin.com/upgrades-plugins/1.x/writing-upgradeable\n    //constructor() {\n    //    name = \"Buy Me A Coffee\";\n    //    owner = payable(msg.sender);\n    //}\n\n    function initialize() public initializer {\n        name = \"Buy Me A Coffee\";\n        coffeeCount = 0;\n        owner = payable(msg.sender);\n    }\n\n    // Define a function 'giveCoffee' that allows a user to give a coffee to the owner\n    function giveCoffee(string memory _message, string memory _name, uint256 _amount) public payable {\n        // Make sure the giver isn't the owner\n        require(msg.sender != owner, \"##The sender should not be the owner\"); // this test or the one below\n        // Make sure the message is not empty\n        require(bytes(_message).length > 0, \"##The message should not be empty\");\n        // Make sure the name is not empty\n        require(bytes(_name).length > 0, \"##The name should not be empty\");\n        // Make sure the coffee is paid for\n        require(msg.value > 0, \"##The amount should be greater than zero\");\n        // Make sure the sender balance is greater than the amount\n        require(msg.sender.balance >= msg.value, \"##The sender balance should be greater than the amount\");\n        // Increment the coffee count\n        coffeeCount ++;\n        // Create the coffee\n        coffees[coffeeCount] = Coffee(coffeeCount, msg.sender, block.timestamp, _message, _name, _amount);\n        // Trigger the event\n        emit CoffeeGiven(coffeeCount, msg.sender, block.timestamp, _message, _name, _amount);\n    }\n\n    // Define a function 'withdrawAll' that allows the owner to withdraw all the Ether in the contract\n    function withdrawAll() external payable {\n        // Make sure the sender is the owner\n        require(msg.sender == owner, \"##Only the owner can withdraw funds\");\n        // Send all the Ether in the contract to the owner\n        owner.transfer(address(this).balance);\n        // Emit the Withdrawal event\n        emit Withdrawn(msg.sender, owner, address(this).balance);\n    }\n\n    // list Coffee from coffees mapping by index and limit\n    function listCoffees(uint256 index, uint256 limit) external view returns (Coffee[] memory) {\n        // Make sure the index is greater than zero\n        require(index > 0, \"##The index should be greater than zero\");\n        // Make sure the index is less than or equal to the coffee count\n        require(index <= coffeeCount, \"##The index should be less than or equal to the coffee count\");\n        // Make sure the limit is greater than zero\n        require(limit > 0, \"##The limit should be greater than zero\");\n        // Make sure the index is less than or equal to the coffee count\n        require(index <= coffeeCount, \"##The index should be less than or equal to the coffee count\");\n        // Make sure the limit + index is less than or equal to the coffee count\n        if (limit + index > coffeeCount) {\n            limit = coffeeCount ;\n        }\n        // Create a new array of Coffee structs\n        Coffee[] memory _coffees = new Coffee[](limit - index + 1);\n        // Loop through the coffees\n        for (uint256 i = index; i <= limit; i++) {\n            // Get the coffee at the current index\n            Coffee memory coffee = coffees[i];\n            // Create a new coffee struct with only the specified attributes\n            Coffee memory newCoffee;\n            newCoffee.id = coffee.id;\n            newCoffee.name = coffee.name;\n            newCoffee.message = coffee.message;\n            newCoffee.timestamp = coffee.timestamp;\n            newCoffee.amount = coffee.amount;\n            // Add the new coffee to the array\n            _coffees[i-index] = newCoffee;\n        }\n        // Return the array\n        return _coffees;\n    }\n\n    // Get the balance of the contract\n    function getBalance() external view returns (uint256) {\n        // This function reads the balance of the contract\n        return address(this).balance;\n    }\n\n    function _authorizeUpgrade(address) internal override virtual {\n        require(msg.sender == owner, \"Unauthorized Upgrade\");\n    }\n}",
  "sourcePath": "/home/hikemu/Desktop/Docker/dbuymeacoffee/src/contracts/BuyMeACoffee.sol",
  "compiler": {
    "name": "solc",
    "version": "0.8.19+commit.7dd6d404.Emscripten.clang"
  },
  "schemaVersion": "3.4.13",
  "updatedAt": "2023-09-21T15:32:30.199Z",
  "networkType": "ethereum",
  "devdoc": {
    "events": {
      "AdminChanged(address,address)": {
        "details": "Emitted when the admin account has changed."
      },
      "BeaconUpgraded(address)": {
        "details": "Emitted when the beacon is changed."
      },
      "Initialized(uint8)": {
        "details": "Triggered when the contract has been initialized or reinitialized."
      },
      "Upgraded(address)": {
        "details": "Emitted when the implementation is upgraded."
      }
    },
    "kind": "dev",
    "methods": {
      "proxiableUUID()": {
        "details": "Implementation of the ERC1822 {proxiableUUID} function. This returns the storage slot used by the implementation. It is used to validate the implementation's compatibility when performing an upgrade. IMPORTANT: A proxy pointing at a proxiable contract should not be considered proxiable itself, because this risks bricking a proxy that upgrades to it, by delegating to itself until out of gas. Thus it is critical that this function revert if invoked through a proxy. This is guaranteed by the `notDelegated` modifier."
      },
      "upgradeTo(address)": {
        "custom:oz-upgrades-unsafe-allow-reachable": "delegatecall",
        "details": "Upgrade the implementation of the proxy to `newImplementation`. Calls {_authorizeUpgrade}. Emits an {Upgraded} event."
      },
      "upgradeToAndCall(address,bytes)": {
        "custom:oz-upgrades-unsafe-allow-reachable": "delegatecall",
        "details": "Upgrade the implementation of the proxy to `newImplementation`, and subsequently execute the function call encoded in `data`. Calls {_authorizeUpgrade}. Emits an {Upgraded} event."
      }
    },
    "version": 1
  },
  "userdoc": {
    "kind": "user",
    "methods": {},
    "version": 1
  }
}